:100000000C94FE000C9424010C9424010C94240103
:100010000C9424010C9424010C9424010C942401CC
:100020000C9424010C9424010C9427010C942401B9
:100030000C9424010C9424010C945F010C94240171
:100040000C9424010C9424010C9424010C9424019C
:100050000C9407020C9424010C9424010C942401A8
:100060000C9424010C9475040C9424010C944C04FD
:100070000C9424010C9424010C9424010C9424016C
:100080000C9424010C9424010C9424010C9424015C
:100090000C9424010C9424010C9424010C9424014C
:1000A0000C9424010C9424010C9424010C9424013C
:1000B0000C9424010C9424010C9424010C9424032A
:1000C0000C9424010C9424010C9424010C9424011C
:1000D0000C9424010C946E030C9424010C942401C0
:1000E0000C9424010C9424010C946B050C942401B1
:1000F0000C9442050C9424010C9424010C942401CA
:100100000C9424010C9424010C9424010C942401DB
:100110000C9424010C9424010C9424010C942401CB
:100120000C9424010C9424010C9424010C942401BB
:100130000C9424010C9490020C9424010C9424013E
:100140000C9424010C9424010C9424010C94DA02E4
:100150000C9424010C9424010C9424010C9424018B
:100160000C94F0040C9424010C94C7040C94240106
:100170000C9424010C9424010C9424010C9424016B
:100180000C9424010C9424010C9424010C9424015B
:100190000C9424010C9424010C9424010C9424014B
:1001A0000C9424010C9424010C9424010C9424013B
:1001B0000C94B8030C9424010C9424010C94240195
:1001C0000C9424010C9424010C9402040C9424013A
:1001D0000C9424010C9424010C9424010C94E60545
:1001E0000C9424010C94BD050C9424010C9424015E
:1001F0000C9424010C9424010C94240111241FBE9E
:10020000CFEFCDBFDFE3DEBF00E00CBF18BE19BEED
:100210001ABE1BBE10E2A0E0B0E2E4E7FCE000E0A2
:100220000BBF02C007900D92A030B107D9F71BBEDB
:1002300021E2A0E0B0E201C01D92AE3DB207E1F7BD
:100240000E9426010C9438060C940000FFCF1F92E8
:100250000F920FB60F92112408B60F9218BE09B66E
:100260000F9219BE2F933F938F939F93AF93BF939A
:100270002091002030910120809102209091032054
:10028000A0910420B0910520820F931FA11DB11DE4
:100290008093022090930320A0930420B093052024
:1002A000BF91AF919F918F913F912F910F9009BE78
:1002B0000F9008BE0F900FBE0F901F9018951F92C1
:1002C0000F920FB60F92112408B60F9218BE09B6FE
:1002D0000F9219BE0BB60F921BBE8F939F93AF93D5
:1002E000BF93EF93FF938091062090910720A091F8
:1002F0000820B0910920892B8A2B8B2B99F08091B3
:10030000062090910720A0910820B0910920019724
:10031000A109B1098093062090930720A09308209B
:10032000B093092080910A2090910B20A0910C207D
:10033000B0910D20892B8A2B8B2B69F0EAE0F0E23B
:1003400080819181A281B3810197A109B109808344
:100350009183A283B38380910E2090910F20A0916E
:100360001020B0911120892B8A2B8B2B69F0EAE0A9
:10037000F0E284819581A681B7810197A109B10935
:1003800084839583A683B783809112209091132054
:10039000A0911420B0911520892B8A2B8B2B69F00A
:1003A000EAE0F0E280859185A285B3850197A109F5
:1003B000B10980879187A287B38780911620909199
:1003C0001720A0911820B0911920892B8A2B8B2BF4
:1003D00069F0EAE0F0E284859585A685B785019706
:1003E000A109B10984879587A687B787FF91EF9107
:1003F000BF91AF919F918F910F900BBE0F9009BE4F
:100400000F9008BE0F900FBE0F901F9018951F926F
:100410000F920FB60F92112408B60F9218BE09B6AC
:100420000F9219BE0BB60F921BBE8F939F93AF9383
:10043000BF93EF93FF9380911A2090911B20A0917E
:100440001C20B0911D20892B8A2B8B2B69F0EAE0B0
:10045000F0E280899189A289B3890197A109B10944
:10046000808B918BA28BB38B80911E2090911F204B
:10047000A0912020B0912120892B8A2B8B2B69F011
:10048000EAE0F0E284899589A689B7890197A109F4
:10049000B109848B958BA68BB78B8091222090918C
:1004A0002320A0912420B0912520892B8A2B8B2BEF
:1004B00069F0EAE0F0E2808D918DA28DB38D019715
:1004C000A109B109808F918FA28FB38F80912620CF
:1004D00090912720A0912820B0912920892B8A2B48
:1004E0008B2B69F0EAE0F0E2848D958DA68DB78DB7
:1004F0000197A109B109848F958FA68FB78FFF91BE
:10050000EF91BF91AF919F918F910F900BBE0F9084
:1005100009BE0F9008BE0F900FBE0F901F90189548
:100520001F920F920FB60F92112408B60F9218BEA9
:1005300009B60F9219BE0BB60F921BBE2F938F9365
:100540009F93AF93BF93EF93FF9380912A20909155
:100550002B20A0912C20B0912D2080319742A10515
:10056000B10570F4EAE0F0E280A191A1A2A1B3A1EB
:100570000196A11DB11D80A391A3A2A3B3A308C09E
:1005800010922A2010922B2010922C2010922D20B5
:10059000FF91EF91BF91AF919F918F912F910F900C
:1005A0000BBE0F9009BE0F9008BE0F900FBE0F90AC
:1005B0001F9018951F920F920FB60F92112408B634
:1005C0000F9218BE09B60F9219BE0BB60F921BBE42
:1005D0002F938F939F93AF93BF93EF93FF9380914C
:1005E0002E2090912F20A0913020B0913120803189
:1005F0009742A105B10570F4EAE0F0E284A195A16B
:10060000A6A1B7A10196A11DB11D84A395A3A6A380
:10061000B7A308C010922E2010922F2010923020E5
:1006200010923120FF91EF91BF91AF919F918F91E7
:100630002F910F900BBE0F9009BE0F9008BE0F9028
:100640000FBE0F901F9018951F920F920FB60F922A
:10065000112408B60F9218BE09B60F9219BE0BB638
:100660000F921BBE2F938F939F93AF93BF93EF93E4
:10067000FF938091322090913320A0913420B0914B
:10068000352080319742A105B10570F4EAE0F0E22F
:1006900080A591A5A2A5B3A50196A11DB11D80A716
:1006A00091A7A2A7B3A708C01092322010923320BE
:1006B0001092342010923520FF91EF91BF91AF91AD
:1006C0009F918F912F910F900BBE0F9009BE0F90AD
:1006D00008BE0F900FBE0F901F9018951F920F929B
:1006E0000FB60F92112408B60F9218BE09B60F92DA
:1006F00019BE0BB60F921BBE2F938F939F93AF9390
:10070000BF93EF93FF938091362090913720A09173
:100710003820B091392080319742A105B10570F49D
:10072000EAE0F0E284A595A5A6A5B7A50196A11DCE
:10073000B11D84A795A7A6A7B7A708C01092362019
:10074000109237201092382010923920FF91EF91AB
:10075000BF91AF919F918F912F910F900BBE0F90F2
:1007600009BE0F9008BE0F900FBE0F901F901895F6
:100770001F920F920FB60F92112408B60F9218BE57
:1007800009B60F9219BE0BB60F921BBE2F938F9313
:100790009F93AF93BF93EF93FF9380913A209091F3
:1007A0003B20A0913C20B0913D2080319742A10593
:1007B000B10570F4EAE0F0E280A991A9A2A9B3A979
:1007C0000196A11DB11D80AB91ABA2ABB3AB08C02C
:1007D00010923A2010923B2010923C2010923D2023
:1007E000FF91EF91BF91AF919F918F912F910F90BA
:1007F0000BBE0F9009BE0F9008BE0F900FBE0F905A
:100800001F9018951F920F920FB60F92112408B6E1
:100810000F9218BE09B60F9219BE0BB60F921BBEEF
:100820002F938F939F93AF93BF93EF93FF938091F9
:100830003E2090913F20A0914020B09141208031F6
:100840009742A105B10570F4EAE0F0E284A995A908
:10085000A6A9B7A90196A11DB11D84AB95ABA6AB06
:10086000B7AB08C010923E2010923F20109240205B
:1008700010924120FF91EF91BF91AF919F918F9185
:100880002F910F900BBE0F9009BE0F9008BE0F90D6
:100890000FBE0F901F9018951F920F920FB60F92D8
:1008A000112408B60F9218BE8F9381E080934D20DB
:1008B0008F910F9008BE0F900FBE0F901F9018954C
:1008C00080E090E0FC01E658FE4D108201968436EF
:1008D0009105C1F710924B20E0914B20F0E0E658D3
:1008E000FE4D108210924C2008951F920F920FB669
:1008F0000F92112408B60F9218BE09B60F9219BEB6
:100900000BB60F921BBE2F933F934F935F936F9342
:100910007F938F939F93AF93BF93EF93FF938091B8
:10092000A00890914B209436C8F48D3011F08A3095
:1009300049F4E0914B20F0E0E658FE4D808391E0D1
:1009400090934C20E0914B20F0E0E658FE4D8083E0
:1009500080914B208F5F80934B2002C00E946004E7
:10096000FF91EF91BF91AF919F918F917F916F9187
:100970005F914F913F912F910F900BBE0F9009BE49
:100980000F9008BE0F900FBE0F901F9018951F92EA
:100990000F920FB60F92112408B60F9218BE8F93C4
:1009A00081E080934A208F910F9008BE0F900FBE78
:1009B0000F901F90189580E090E0FC01EA5EFE4DDC
:1009C0001082019684369105C1F710924820E0917B
:1009D0004820F0E0EA5EFE4D108210924920089512
:1009E0001F920F920FB60F92112408B60F9218BEE5
:1009F00009B60F9219BE0BB60F921BBE2F933F93F1
:100A00004F935F936F937F938F939F93AF93BF9316
:100A1000EF93FF938091A009909148209436C8F4F9
:100A20008D3011F08A3049F4E0914820F0E0EA5E20
:100A3000FE4D808391E090934920E0914820F0E0C2
:100A4000EA5EFE4D8083809148208F5F809348202E
:100A500002C00E94DB04FF91EF91BF91AF919F9183
:100A60008F917F916F915F914F913F912F910F9057
:100A70000BBE0F9009BE0F9008BE0F900FBE0F90D7
:100A80001F9018951F920F920FB60F92112408B65F
:100A90000F9218BE8F9381E0809347208F910F9023
:100AA00008BE0F900FBE0F901F90189580E090E049
:100AB000FC01EE54FF4D1082019684369105C1F77A
:100AC00010924520E0914520F0E0EE54FF4D108259
:100AD0001092462008951F920F920FB60F92112484
:100AE00008B60F9218BE09B60F9219BE0BB60F9238
:100AF0001BBE2F933F934F935F936F937F938F937F
:100B00009F93AF93BF93EF93FF938091A00A90912F
:100B100045209436C8F48D3011F08A3049F4E091C4
:100B20004520F0E0EE54FF4D808391E09093462005
:100B3000E0914520F0E0EE54FF4D80838091452008
:100B40008F5F8093452002C00E945605FF91EF9170
:100B5000BF91AF919F918F917F916F915F914F91D5
:100B60003F912F910F900BBE0F9009BE0F9008BEC2
:100B70000F900FBE0F901F9018951F920F920FB6F7
:100B80000F92112408B60F9218BE8F9381E08093C4
:100B900044208F910F9008BE0F900FBE0F901F90B2
:100BA000189580E090E0FC01E25BFF4D1082019619
:100BB00084369105C1F710924220E0914220F0E086
:100BC000E25BFF4D10821092432008951F920F9216
:100BD0000FB60F92112408B60F9218BE09B60F92E5
:100BE00019BE0BB60F921BBE2F933F934F935F938B
:100BF0006F937F938F939F93AF93BF93EF93FF93E5
:100C00008091A00B909142209436C8F48D3011F061
:100C10008A3049F4E0914220F0E0E25BFF4D8083AE
:100C200091E090934320E0914220F0E0E25BFF4DA1
:100C30008083809142208F5F8093422002C00E9477
:100C4000D105FF91EF91BF91AF919F918F917F91CE
:100C50006F915F914F913F912F910F900BBE0F902D
:100C600009BE0F9008BE0F900FBE0F901F901895F1
:040C7000F894FFCF26
:00000001FF
